"{\n  \"hash\": \"0x4a4164a26b90789c033bc5117119988c1a38abfe2dcfa1a539dba9473eaa4a69\",\n  \"parentHash\": \"0xb2d49f19430c7575ea6db6e24b22ceec77d1ec14aeee4b27792d2748313b4a5f\",\n  \"sha3Uncles\": \"0x1dcc4de8dec75d7aab85b567b6ccd41ad312451b948a7413f0a142fd40d49347\",\n  \"miner\": \"0x00bd138abd70e2f00903268f3db08f2d25677c9e\",\n  \"stateRoot\": \"0x0c2ed3ded4a870a74b4898ef90583ac85db61dcb9b8da1f2e84f6958f493cc27\",\n  \"transactionsRoot\": \"0xd2502508275d004d40dc5949ddb2ab91db59c58f90d41473d3125d642d264951\",\n  \"receiptsRoot\": \"0xd95b673818fa493deec414e01e610d97ee287c9421c8eff4102b1647c1a184e4\",\n  \"number\": \"0x1c\",\n  \"gasUsed\": \"0xa410\",\n  \"gasLimit\": \"0x5e16ba\",\n  \"baseFeePerGas\": null,\n  \"extraData\": \"0xdb830302058c4f70656e457468657265756d86312e35312e30826d61\",\n  \"logsBloom\": \"0x00000000000000000000000000000000000000000000000000000000000000000000000000000000000000000000000000000000000000000000000000000000000000000000000000000000000000000000000000000000000000000000000000000000000000000000000000000000000000000000000000000000000000000000000000000000000000000000000000000000000000000000000000000000000000000000000000000000000000000000000000000000000000000000000000000000000000000000000000000000000000000000000000000000000000000000000000000000000000000000000000000000000000000000000000000000\",\n  \"timestamp\": \"0x61174b36\",\n  \"difficulty\": \"0xfffffffffffffffffffffffffffed53b\",\n  \"totalDifficulty\": \"0x1bffffffffffffffffffffffff9eeab4ae\",\n  \"sealFields\": [\n    \"0x8461174b36\",\n    \"0xb841ee9ac50e357a43fdcc81ebe1587d820f7db519bb16bf89ce525c9b15fb7f3117132fb4afa7c056f49ea0198b2fa6d699dbd48cd151b200490d3ee76af14c810201\"\n  ],\n  \"uncles\": [],\n  \"transactions\": [\n    {\n      \"hash\": \"0x0ba75d9e18c45b5e452365206ae09fe6ec6f249fa756031f1fb1d49c65b07e11\",\n      \"nonce\": \"0x41\",\n      \"blockHash\": \"0x4a4164a26b90789c033bc5117119988c1a38abfe2dcfa1a539dba9473eaa4a69\",\n      \"blockNumber\": \"0x1c\",\n      \"transactionIndex\": \"0x0\",\n      \"from\": \"0x004ec07d2329997267ec62b4166639513386f32e\",\n      \"to\": \"0x00aa39d30f0d20ff03a22ccfc30b7efbfca597c2\",\n      \"value\": \"0xde0b6b3a76400\",\n      \"gasPrice\": \"0x0\",\n      \"gas\": \"0x186a00\",\n      \"input\": \"0x\",\n      \"v\": \"0x4669\",\n      \"r\": \"0xfeb58d1e42be02f14868166cbeb204ec87f1ead34e6322b7a8ab107e7e457789\",\n      \"s\": \"0x4721f214c5a4157561c97515044d3f7708b2252d11725ef68208b2b149a80f6f\",\n      \"raw\": \"0xf869418083186a009400aa39d30f0d20ff03a22ccfc30b7efbfca597c2870de0b6b3a7640080824669a0feb58d1e42be02f14868166cbeb204ec87f1ead34e6322b7a8ab107e7e457789a04721f214c5a4157561c97515044d3f7708b2252d11725ef68208b2b149a80f6f\"\n    },\n    {\n      \"hash\": \"0xbfa9e31a6f99c2afff4141f0b7c1fc6f2c6416025317d2ffc090bd5058ff53b3\",\n      \"nonce\": \"0x42\",\n      \"blockHash\": \"0x4a4164a26b90789c033bc5117119988c1a38abfe2dcfa1a539dba9473eaa4a69\",\n      \"blockNumber\": \"0x1c\",\n      \"transactionIndex\": \"0x1\",\n      \"from\": \"0x004ec07d2329997267ec62b4166639513386f32e\",\n      \"to\": \"0x00aa39d30f0d20ff03a22ccfc30b7efbfca597c2\",\n      \"value\": \"0xde0b6b3a76400\",\n      \"gasPrice\": \"0x0\",\n      \"gas\": \"0x186a00\",\n      \"input\": \"0x\",\n      \"v\": \"0x466a\",\n      \"r\": \"0x422b8c4b40d764e74cb360b71f9e3e4e58bf369544bbb9e7e41bf08c6a633e0d\",\n      \"s\": \"0x59cc8eb788c3aaaab549919ece2b713f1afcb1f7acd2ad04575be7e97ef886ca\",\n      \"raw\": \"0xf869428083186a009400aa39d30f0d20ff03a22ccfc30b7efbfca597c2870de0b6b3a764008082466aa0422b8c4b40d764e74cb360b71f9e3e4e58bf369544bbb9e7e41bf08c6a633e0da059cc8eb788c3aaaab549919ece2b713f1afcb1f7acd2ad04575be7e97ef886ca\"\n    }\n  ],\n  \"size\": \"0x31f\",\n  \"mixHash\": null,\n  \"nonce\": null\n}"